:020000040800F2
:1000000070080020890100086B2100089B1B000874
:100010006921000823030008F12500080000000002
:100020000000000000000000000000005523000850
:10003000A9030008000000006D2100086F230008DC
:10004000A3010008A3010008A3010008A301000800
:10005000A3010008A3010008A3010008A3010008F0
:10006000A3010008A3010008A3010008A3010008E0
:10007000A3010008A30100089D030008A3010008D4
:10008000A3010008A3010008A3010008A3010008C0
:10009000A3010008A3010008A3010008A3010008B0
:1000A000A3010008A3010008A3010008A3010008A0
:1000B000A3010008A3010008A3010008A301000890
:1000C000A3010008A3010008A3010008A301000880
:1000D000A3010008E5250008A3010008A30100080A
:1000E000A3010008A3010008A301000800F002F822
:1000F00000F03AF80AA090E8000C82448344AAF188
:100100000107DA4501D100F02FF8AFF2090EBAE885
:100110000F0013F0010F18BFFB1A43F0010318473B
:10012000A02A0000C02A0000103A24BF78C878C175
:10013000FAD8520724BF30C830C144BF04680C60ED
:10014000704700000023002400250026103A28BF35
:1001500078C1FBD8520728BF30C148BF0B60704739
:100160001FB51FBD10B510BD00F097F81146FFF781
:10017000F7FF02F099FB00F0B5F803B4FFF7F2FFC8
:1001800003BC00F0BDF8000009488047094800475B
:10019000FEE7FEE7FEE7FEE7FEE7FEE7FEE7FEE737
:1001A000FEE7FEE704480549054A064B7047000094
:1001B000D1230008ED000008700200207008002024
:1001C0007004002070040020B2F120030AD5C2F1AF
:1001D000200320FA02F001FA03F321FA02F140EAC7
:1001E0000300704721FA03F04FF00001704740EA26
:1001F000010310B59B070FD1042A0DD310C808C9FD
:10020000121F9C42F8D020BA19BA884201D90120A5
:1002100010BD4FF0FF3010BD1AB1D30703D0521CF0
:1002200007E0002010BD10F8013B11F8014B1B1B2B
:1002300007D110F8013B11F8014B1B1B01D1921E95
:10024000F1D1184610BD4FF0000200B51346944698
:100250009646203922BFA0E80C50A0E80C50B1F11E
:100260002001BFF4F7AF090728BFA0E80C5048BF32
:100270000CC05DF804EB890028BF40F8042B08BFD0
:10028000704748BF20F8022B11F0804F18BF00F8CC
:10029000012B7047704770477047754600F02CF887
:1002A000AE4605006946534620F00700854618B063
:1002B00020B5FFF777FFBDE820404FF000064FF074
:1002C00000074FF000084FF0000B21F00701AC468B
:1002D000ACE8C009ACE8C009ACE8C009ACE8C009AA
:1002E0008D46704710B50446AFF300802046BDE848
:1002F0001040FFF742BF0000004870471002002086
:1003000001491820ABBEFEE726000200704710B579
:10031000142001F08DFF0321BDE81040142002F0ED
:100320001AB8FEE72DE9F0410E46074615460421AE
:10033000052000F026F880210A2002F00CF80024A5
:1003400005E0395D092002F055F9641CE4B2B442BD
:10035000F7D30321012002F04DF9FF24052001F01D
:1003600067FF641E14F0FF0401D04007F6D5222079
:1003700001F05EFF2870212001F05AFF6870BDE88F
:10038000F08170B50C46054601F052FF20EA0401E9
:100390002846BDE8704002F02DB90000014800F089
:1003A00053B9000060010020704772B6FEE70000FC
:1003B00006490020C8610648016941F00401016155
:1003C000016941F04001016170470000A80100206F
:1003D00000200240064A0021D16106490A6942F024
:1003E00002020A614861086940F0400008617047F4
:1003F000A801002000200240044B0022DA61044AD8
:10040000136943F00103136101807047A8010020C4
:100410000020024014480022C168CB06134904D5CD
:10042000CA6942F00202CA611022C3685B0705D59F
:10043000CB6943F00103CB6142F00402C369DB07DF
:1004400007D0CB6943F00403CB61C16921F00101FE
:10045000C161A2F58071013901D0C2607047C169E4
:1004600021F00101C161704700200240A801002075
:1004700070B5054600F07AFB0646114C09E0681C91
:1004800007D025B100F072FB801BA84201D90320E0
:1004900070BDE068C007F2D1E068800601D5202079
:1004A000E060E068C00605D4E069C00702D1E068FA
:1004B000400703D5FFF7AEFF012070BD002070BDDF
:1004C0000020024010B586B0044600F045FA002036
:1004D00000900120CDE9024004A9684600F09EF991
:1004E00000F0F0F906B010BD00880870704730B514
:1004F000002308E0C45A5D1CCC54954202D2240A61
:10050000CD186C709B1C9342F4D330BD70B505467A
:100510000C46FFF7D7FF00F01FFA224600232946BA
:10052000012000F0D9F9BDE8704000F0CBB92DE909
:10053000F04116460D460746FFF7C4FF00F00CFADF
:1005400000240CE0601CB04202D22819028800E0AE
:100550002A5D39190023012000F0BEF9A41CB44221
:10056000F0D3BDE8F04100F0ADB910B590F821101E
:100570000022022905D00421816380F82020012077
:1005800010BD01680B6823F00E030B6001680B6857
:1005900023F001030B6090F84030C46B012101FA95
:1005A00003F3636080F8211080F82020104610BD0E
:1005B00010B590F821100024022903D00421816392
:1005C00001243DE001680A6822F00E020A60016819
:1005D0000A6822F001020A601A4A0168914201D1B8
:1005E000012121E0174A1432914201D110211BE070
:1005F000144A2832914201D1891515E0114A3C3242
:10060000914201D189140FE00E4A5032914202D139
:100610004FF4803108E00B4A6432914202D14FF42A
:10062000801101E04FF08071064A083A51600121C3
:1006300080F82110002180F82010416B01B188471B
:10064000204610BD080002402DE9F05FC16B0C6828
:1006500001680B68D0F840C0042202FA0CF2494D40
:10066000DFF824A1494E4A4FDFF828B1DFF828E12E
:1006700022422CD05A072AD50A68920603D40A6867
:1006800022F004020A600168A94201D1042219E0A3
:10069000514501D1402215E0B14202D14FF48062B0
:1006A00010E0B94202D14FF480420BE0594502D12B
:1006B0004FF4802206E0714502D14FF4800201E040
:1006C0004FF080622F4908394A60C16A3BE04FF021
:1006D000020808FA0CF818EA040F4FF000094FF06E
:1006E000010235D05FEA837832D50B689B0605D4CA
:1006F0000B6823F00A030B6080F821200168A942EF
:1007000001D1022219E0514501D1202215E0B14268
:1007100002D14FF4007210E0B94202D14FF40052FE
:100720000BE0594502D14FF4003206E0714502D189
:100730004FF4001201E04FF00072124908394A608C
:1007400080F82090816A00291AD0BDE8F05F084740
:10075000082505FA0CF5254212D01B0710D50B68A9
:1007600023F00E030B6090F84010C36B02FA01F106
:100770005960826380F8212080F82090016BE2E7C5
:10078000BDE8F09F080002401C000240300002401B
:1007900044000240580002406C00024030B528B3CB
:1007A00008C8134914221944B1FBF2F18900C1634E
:1007B00010498163022141771A6843F6F0718A4338
:1007C000D0E900142143D0E902452C4321430469B8
:1007D0002143446921438469214311431960002165
:1007E0004163012242770177084630BD012030BDC8
:1007F000F8FFFDBF0000024070B5044600F0B6F9F6
:100800000546601C02D004480078044400F0AEF9AC
:10081000401BA042FAD370BD100000202DE9F04724
:10082000054626480F460126017E01290FD00121E9
:10083000814601762868DFF888804CF2503402281F
:1008400008D0A2462046FFF713FEA8B131E00220EF
:10085000BDE8F0872046FFF70BFE08BB0120FFF73D
:10086000A7FD2046FFF704FED8F81010064621F039
:100870000401C8F810101CE04FF0FF303860AC687D
:1008800011E02046FFF7A6FD5046FFF7F1FDD8F82E
:100890001010060021F00201C8F8101001D03C60D1
:1008A00007E004F58064D5E9020100EB8120A04255
:1008B000E7D8002189F818103046C9E7A8010020C0
:1008C000002002400348016941F0800101610020DD
:1008D00070470000002002402DE9F05F07461C48E9
:1008E00088460024017E15461E46012909D00121B3
:1008F000814601764CF2503A5046FFF7B9FD18B1E7
:1009000022E00220BDE8F09F012F02D0022F00D08C
:100910000427D346DFF83CA0220128463146FFF7E2
:1009200053FC81B208EB4400FFF766FD5846FFF721
:100930009FFDDAF8102022F00102CAF8102018B941
:10094000641CE4B2BC42E7D3002289F81820D9E73E
:10095000A801002000200240064900200A69120672
:1009600007D5054A4A60054A4A600969090600D563
:10097000012070470020024023016745AB89EFCD7D
:100980002DE9F84FDFF8B8910024A9F1040B2346B4
:100990000F2709F1040AABF1040EC9E00125A540B7
:1009A0002A40AA427DD1674ED1F804C0ACEB0608BC
:1009B000B44532D014DCBCF1030F3AD009DCBCF1F1
:1009C000000F2AD0BCF1010F1CD0BCF1020F31D1B5
:1009D0001DE0BCF1110F17D0BCF1120F2AD119E0A4
:1009E000B8F5881F19D006DCB8F5803F15D0B8F5EA
:1009F000801F1FD111E0B8F5001F0ED0B8F5041FFD
:100A000018D10AE0CB6815E0CB681B1D12E0CB685B
:100A100008330FE0CB680C330CE08B682BB1012B53
:100A20004FF0080303D0456104E0042302E00561B0
:100A300000E00023FF2A01D8064601E000F1040689
:100A40004FEA840501D9A5F12005D6F8008007FA00
:100A500005FC28EA0C0803FA05F548EA0508C6F87B
:100A600000804D68ED0062D5374DAE6946F0010655
:100A7000AE61AD6924F0030605F001050095334D24
:100A800006EB050CDCF80850A607360F07FA06F847
:100A900025EA0805DFF8B880404503D14FF000088B
:100AA00017E044E0DFF8AC80404502D14FF0010888
:100AB0000FE0DFF8A480404502D14FF0020808E0C3
:100AC000DFF89880404502D14FF0030801E04FF075
:100AD000040808FA06F848EA0508CCF808804D68CA
:100AE000D9F80060ED024D4601D5164300E096436B
:100AF0002E604D68DAF80060AD02554601D5164308
:100B000000E096432E604D68DBF80060AD035D4663
:100B100001D5164300E096432E604D68DEF8006074
:100B2000ED03754601D5164300E096432E60641C24
:100B30000D682A46E5407FF431AFBDE8F88F00002C
:100B400008040140000011100010024000000140A4
:100B500000080140000C0140001001400014014059
:100B60000AB1016170470904FBE700000148806891
:100B7000704700001000002070B5040025D094F8E4
:100B80003D00002520B984F83C50204600F04EF985
:100B9000242084F83D002068016821F001010160F3
:100BA0002068016841F4004101602068016821F477
:100BB0000041016000F096FA4D4A6168914201D807
:100BC0004C4900E04C49884201D2012070BD4B499C
:100BD0002368B0FBF1F15E6826F03F060E435E60CD
:100BE0006368934206D94FF4967359434FF47A736E
:100BF000B1FBF3F12368491C1E6A26F03F0631431E
:100C000019626168914210D84900401EB0FBF1F2B0
:100C1000521CC2F30B02042A01D2042022E0B0FBD2
:100C2000F1F0401CC0F30B001CE0A268F2B301EB32
:100C3000C10303EB0116431EB3FBF6F35B1C43F445
:100C400080431B0549D092B301EBC10202EB0111B5
:100C5000401EB0FBF1F0401CC0F30B0040F480409C
:100C600040F400402168CA694CF6FF739A43104370
:100C7000C861D4E9071001432068026822F0C0026D
:100C800011430160D4E9030101432068826848F2FE
:100C9000FF339A4311438160D4E905010843216879
:100CA000CA6822F0FF021043C86001E00EE016E0BF
:100CB0002068016841F0010101602564202084F86A
:100CC0003D00256384F83E50002070BD01EB4106D5
:100CD000431EB3FBF6F35B1CB3E70120C2E701EB55
:100CE0004101401EB0FBF1F0401CC0F30B00B7E720
:100CF000A086010080841E0000093D0040420F00D4
:100D00002DE9F84F1F4690468A460446DDF82890A4
:100D1000FFF72CFF054694F83D0020287FD11923CA
:100D2000012240492046009500F0CAFF002876D1F4
:100D300094F83C00012872D0012084F83C0020681F
:100D40000168C90703D1016841F001010160206811
:100D5000016821F400610160212084F83D00102029
:100D600084F83E0000262664C4F824806785608DE0
:100D700020852D48E0622B464A465146204600F029
:100D800025FF90B9206841698069009036E02A46C5
:100D90004946204601F03AF850B1206C042804D1AD
:100DA0002068016841F4007101600120BDE8F88FFE
:100DB000606A216800780861606A401C6062618D29
:100DC000491E6185218D491E89B22185226853699A
:100DD000DB435B070BD451B100781061606A401CA3
:100DE0006062608D401E6085208D401E20852A46F1
:100DF0004946204600F038FF0028CED1208D00283B
:100E0000C5D154F83D0B016841F400710160202008
:100E100004F81E09E67766770020C7E7FFE702209F
:100E2000C4E70000020010000000FFFF10B586B00C
:100E30000021009101910291039100680F498842BD
:100E40001AD10F4CA06940F00800A061A069694662
:100E500000F008000490C0200090122001900320B0
:100E600003900848FFF78CFDE06940F40010E06152
:100E7000E06900F40010049006B010BD005400407A
:100E800000100240000C01400248816802781144C1
:100E90008160704710000020074810B5016841F0DC
:100EA00010010160032000F075F80F2000F006F833
:100EB00000F024F8002010BD0020024070B50D4D58
:100EC00004464FF47A712878B1FBF0F00A490968BA
:100ED000B1FBF0F000F066FC48B9102C07D20022FC
:100EE0002146501E00F036F800206C6070BD0120D5
:100EF00070BD0000100000201C0000200C4808B548
:100F0000816941F001018161816901F00101009174
:100F1000C16941F08051C161C06900F0805000900A
:100F20000448416821F0E06141F00071416008BD72
:100F30000010024000000140002809DB00F01F0201
:100F4000012191404009800000F1E020C0F800112B
:100F500070470000F0B40E4B1B680C46C3F302232D
:100F6000C3F10705042D00D90425191D072901D255
:100F7000002300E0DB1E012606FA05F1491E214090
:100F800099409E40761E16403143F0BC01F04CBBA8
:100F90000CED00E0064900F0070208684FF6FF0379
:100FA000184040EA0220034A1043086070470000DE
:100FB0000CED00E00000FA052DE9F0470F460500B2
:100FC00061D0434E306800F00700B84209D2306863
:100FD00020F0070038433060306800F00700B84266
:100FE00051D128683B4C810712D5400703D5606872
:100FF00040F4E06060602878000703D5606840F442
:10100000605060606068A96820F0F000084360608C
:101010002878C00728D06868012810D021680228E5
:1010200010D0890700292EDA616821F003010143FD
:101030006160FFF79BFD804641F288390DE0216831
:101040008903EFE78901EDE7FFF790FDA0EB0801C9
:10105000494502D90320BDE8F0876068696800F05F
:101060000C00B0EB810FEFD1306800F00700B84200
:101070000BD9306820F0070038433060306800F04A
:101080000700B84201D00120E5E72878400705D5E0
:101090006068E96820F4E060084360602878000731
:1010A00006D56068296920F4605040EAC10060609C
:1010B00000F038F86168084AC1F30311515CC84078
:1010C0000649086006480068FFF7F8FE0020C2E7FE
:1010D0000020024000100240562B00081C00002097
:1010E000140000200448054900684968044AC1F317
:1010F0000221515CC84070471C00002000100240D3
:10110000662B00080448054900684968044AC1F391
:10111000C221515CC84070471C00002000100240F2
:10112000662B00080E4A51680E4801F00C03042B90
:1011300011D0082B0FD10C48C1F38343C903C05C05
:101140000AD55168084AC1F34041921E515C054AD4
:101150005043B0FBF1F0704704494843704700002A
:101160000010024000127A00462B000800093D00E2
:101170002DE9F84F040070D02078C04DC00749D049
:101180006868C0F38100012807D06868C0F3810057
:10119000022809D16868C00306D52868800339D5BC
:1011A00060680028E7D035E06068B0F5803F0BD07C
:1011B00010B1B0F5A02F11D0286820F4803028603D
:1011C000286820F4802002E0286840F480302860FD
:1011D000606890B1FFF7CAFC06460AE0286840F450
:1011E00080202860F0E700BFFFF7C0FC801B642868
:1011F00073D828688003F7D50CE0FFF7B7FC0646E4
:1012000005E000BFFFF7B2FC801B6428F0D8286817
:101210008003F7D420789A4E80074FF001094FF0F1
:10122000000839D5686810F00C0F07D06868C0F363
:101230008100022809D16868C00306D428688007A5
:1012400014D52069012808D110E02069B0B1C6F892
:101250000090FFF78BFC074605E00AE1FFF786FCEC
:10126000C01B0228C4D828688007F7D528686169A0
:1012700020F0F80040EAC10028600DE0C6F80080C8
:10128000FFF774FC074604E0FFF770FCC01B022860
:1012900023D828688007F7D4207800072CD5794810
:1012A000A169D9B1C0F80090FFF760FC074604E0DF
:1012B000FFF75CFCC01B02280FD8686A8007F7D5CF
:1012C00071484FF4FA510068B0FBF1F0009000BF94
:1012D0000098411E0091FAD20EE080E0C0F8008034
:1012E000FFF744FC074604E0FFF740FCC01B022860
:1012F00075D8686A8007F7D42078400760D5E86918
:101300000027C00008D4E86940F08050E861E8692F
:10131000012700F0805000905C480168C90513D493
:101320000168834641F480710160FFF71FFC82462B
:1013300006E000BFFFF71AFCA0EB0A0064284ED8B5
:10134000DBF80000C005F5D5E06801280AD008B137
:10135000052813D0286A20F001002862286A20F0AE
:10136000040002E0286A40F001002862E06841F2CF
:10137000883B98B1FFF7FAFB82460BE0286A40F001
:1013800004002862EEE700BFFFF7F0FBA0EB0A01C4
:1013900059455AD8286A8007F6D50CE0FFF7E6FBD6
:1013A000824605E0FFF7E2FBA0EB0A0159454CD865
:1013B000286A8007F6D41FB1E86920F08050E86100
:1013C000E06988B36968C1F38101022944D0022829
:1013D000C6F8608004D0FFF7C9FB044638E034E06B
:1013E000FFF7C4FB074604E0FFF7C0FBC01B022861
:1013F0002BD828688001F7D4206AB0F5803F05D14A
:101400006868A16820F4003008436860D4E90801E6
:101410000843696821F4741108436860C6F8609055
:10142000FFF7A4FB044606E025E000BFFFF79EFBA4
:10143000001B022809D828688001F7D51BE000BFEF
:10144000FFF794FB001B022802D90320BDE8F88FA8
:1014500028688001F4D40EE00128F7D06868226A79
:1014600000F48031914204D1616A00F47010884226
:1014700001D00120EAE70020E8E700000010024068
:1014800000004242800442421C00002000700040E4
:1014900070B5040009D0606A002540B1256165611E
:1014A000A56294F8510040B10CE0012070BD606865
:1014B000B0F5827FF4D0E561F2E784F85050204621
:1014C00000F040F8022084F851002068016821F003
:1014D00040010160A088218900F4827001F4044178
:1014E0000843A18901F400610843217C01F0020155
:1014F0000843217D01F001010843218B01F40071B3
:101500000843217F01F03801084394F8201001F0CE
:1015100080010843218D01F40051084321680860CF
:10152000A069042101EA1040216848602068C1696F
:1015300021F40061C1616565012084F8510000203B
:1015400070BD000030B585B0002400940194029471
:10155000039400681449884223D11448816941F4F6
:1015600080518161816901F480510491816941F068
:101570000401816180690E4D00F004000490A020F8
:101580000090022001900320039069462846FFF74F
:10159000F7F94020CDE90004694628460294FFF798
:1015A000EFF905B030BD00000030014000100240EE
:1015B000000801402DE9FF4F81B01D4693460446C7
:1015C0004FF001090E9EFFF7D1FA074694F851003B
:1015D0006168012806D0B1F5827F3CD1A168C9BB02
:1015E000042838D10298002871D0BBF1000FFBD03D
:1015F000002DF9D094F8500001282CD04FF0010AAA
:1016000084F850A094F85100042802D0052084F8F2
:1016100051004FF00008C4F85480C4F838B0E58792
:10162000A58702992163E586A586C4F84080C4F8A1
:10163000448020680168490603D4016841F04001F4
:101640000160E068B0F5006F606808D0F0B3012D6C
:1016500049D081E0FFE7022005B0BDE8F08F08B176
:10166000012D39D1206B21680088C860206B801C57
:101670002063E08E401EE0862EE0206881688907A6
:101680000FD5E18E69B1B9F1010F0AD1216B09883B
:10169000C160206B801C2063E08E401EE0864FF00E
:1016A000000920688168C9070CD0E18F51B1C0687A
:1016B000A16B0880A06B801CA063E08F401EE087B8
:1016C0004FF00109FFF752FAC01B01E00BE067E0A1
:1016D000B04201D3701C50D1E08E0028CDD1E08FF4
:1016E0000028CAD13EE0206B216800780873206B87
:1016F000401C2063E08E401EE0862DE0206881685B
:1017000089070FD5E18E69B1B9F1010F0AD1216BBB
:1017100009780173206B401C2063E08E401EE08638
:101720004FF0000920688168C9070CD0E18F51B1E2
:10173000C068A16B0870A06B401CA063E08F401EC6
:10174000E0874FF00109FFF711FAC01BB04202D346
:10175000701C01D011E086B1E08E0028CED1E08F60
:101760000028CBD13A463146204600F07DFD50B1ED
:101770002020606584F8508012E084F851A084F83D
:101780005080032068E7A06818B92068C1688068A5
:10179000009084F851A084F85080606D0028F1D04A
:1017A000012059E710B5401EB0F1807F01D3012020
:1017B00010BD4FF0E02460610F21601700F034FF8E
:1017C0000020A06107202061002010BD70477047F5
:1017D000F8B5016804460868CA684B6910F00F0F35
:1017E0004FF0000559D003F0010602F4907737431B
:1017F00065D0C10705D0D10503D5616C41F0010169
:101800006164410705D5D90703D0616C41F002013D
:101810006164810705D5D90703D0616C41F00401EB
:101820006164010707D502F02001314303D0616CE8
:1018300041F008016164616C00293AD0800604D54A
:10184000900602D5204600F0F3FD20684069616CE7
:10185000C0F38010090700D460B3204600F0C1FD3A
:1018600020684069400621D52068143050E8001FE8
:1018700021F0400140E80012002AF5D1E06BA8B148
:101880006D494163E06BFEF793FE002811D0E06BD9
:10189000416B01B0BDE8F040084783060FD59306C1
:1018A0000DD52046BDE8F84000F0C2BD2046FFF748
:1018B0008EFFF8BD2046FFF78AFF6564F8BD266BF2
:1018C0002023012E7CD1C6067AD5D60678D50868A5
:1018D0004868009048694FF00206400640D5E16B29
:1018E000086840680004000CE8D0A28D8242E5D967
:1018F000E085886920282DD020680C3050E8001F32
:1019000021F4807140E80012002AF5D120681430DB
:1019100050E8001F21F0010140E80012002AF5D133
:101920002068143050E8001F21F0400140E8001208
:10193000002AF5D184F84230256320680C3050E845
:10194000001F21F0100140E80012002AF5D1E06BE1
:10195000FEF70BFE6663A08DE18D401A81B22AE08E
:10196000A08DE18D401A81B2E08D0028A6D000291B
:10197000A4D022680C3252E8000F20F4907042E8A4
:101980000007002FF5D12068143050E8002F22F016
:10199000010240E80027002FF5D184F8423025638A
:1019A00020680C3050E8002F22F0100240E800239D
:1019B000002BF5D166632046FFF708FFF8BDFFE76F
:1019C00005062BD5150629D594F841002128F5D117
:1019D000A068B0F5805F01D12069B0B1206A411CD8
:1019E0002162216800784860E08C401E0004000CF1
:1019F000E084E3D12068C16821F08001C1602068E3
:101A0000C16841F04001C160D8E7206A0088C0F396
:101A100008004860206A801C2062E5E74006CDD5BA
:101A20005006CBD5CA68204622F04002CA6084F82E
:101A3000413000F0B1F8C1E7D323000870B50400CD
:101A400004D094F84100002510B106E0012070BDDB
:101A500084F84050204600F023F8242084F8410008
:101A60002068C16821F40051C160204600F042FDA9
:101A70002068016921F4904101612068416921F0E9
:101A80002A0141612068C16841F40051C160656468
:101A9000202084F8410084F842006563002070BD76
:101AA00070B586B000250646009501950295039510
:101AB0000068224988423FD12149886940F480402A
:101AC0008861886900F480400490886940F00400CF
:101AD000886188691B4C00F0040004904815009050
:101AE000022001900320039069462046FEF748FF3C
:101AF0002015CDE90005694620460295FEF740FF16
:101B0000124C114820601020C4E901058020C4E96E
:101B100003056561A5612046E561FEF73FFE08B15A
:101B2000FEF743FCB4630022114625206662FFF7EE
:101B300011FA2520FFF700FA06B070BD0038014009
:101B400000100240000801404400024060010020F3
:101B500090F84230202B01D00220704721B11AB1F9
:101B60000023036300F022BD0120704710B508492F
:101B70000068096888420AD10648007800F0CAFF68
:101B8000BDE81040012203490148FFF7E1BF10BD45
:101B900008010020000000207047FEE701684A6944
:101BA000D24352050FD46FF480624A61002140F89D
:101BB000301F202242738173026942F004020261E5
:101BC000017301207047002070470000F8B50446FB
:101BD000C06A1E460D461746082807D0012805D0C2
:101BE00010F5803F02D0206B122804D120680168D4
:101BF00041F480710160134600224FF0011120462C
:101C0000009600F05DF840B120680068C00502D57C
:101C10004FF4007020640320F8BD2069B0F5804FB8
:101C20000ED00620216800EAD51040F0F0000861CF
:101C300033463A460B49204600F08AF878B902E06C
:101C400005F0FE0000E0E8B221680861054933466E
:101C50003A46891F204600F07BF80028DCD001209E
:101C6000F8BD00000800010070B516460D46044698
:101C70001EE02046FFF792FF08B1012070BD681CEE
:101C800016D0FEF773FF801BA84200D885B92068E4
:101C90004069C04340070BD5002044F8300F202195
:101CA0006173A073216941F0200121612073E4E791
:101CB00020684069C0434007DBD4002070BD0000AD
:101CC0002DE9F047984617460D460446C1F30746EE
:101CD000DDF820902AE000BFB8F1FF3F26D0FEF7E4
:101CE00045FFA0EB0901414502D8B8F1000F1DD115
:101CF0002068012E16D0806925EA00000004000C3F
:101D000012D00020B84211D1002044F8300F202119
:101D10006173A073216941F02001216120730120CA
:101D2000BDE8F0874069E7E70120EBE72068012E76
:101D30000AD0806925EA00000004000C06D00020CB
:101D4000B842C9D00020EBE74069F3E70120F7E78C
:101D50002DE9F047984616460D4604464FF0000917
:101D60004FF0200AC1F3074723E020684069C043D1
:101D7000400515D42068016841F4007101602168B4
:101D80006FF480604861C4F8309084F83DA084F816
:101D90003E90216C41F00401216484F83C9021E0E4
:101DA000701C06D0FEF7E2FEA0EB0800B04203D89C
:101DB00016B1012F1FD021E02068012F15D08069B6
:101DC00025EA00000004000C18D000BF44F8309F42
:101DD00084F80DA084F80E90216941F02001216162
:101DE00084F80C900120BDE8F087406925EA0000E6
:101DF0000004000CEAD12068406901E02068806995
:101E000025EA00000004000CAFD1ECE770B51646DF
:101E10000D4604461EE02046FFF7C0FE08B1012033
:101E200070BD681C16D0FEF7A1FE801BA84200D82A
:101E300085B920684069C04300060BD5002044F8EE
:101E4000300F20216173A073216941F020012161CD
:101E50002073E4E720684069C0430006DBD400201B
:101E600070BD7CB50446002529460D2000F0C2FB5C
:101E7000932020702020607001A823460090022249
:101E800019460C2000F092F8010009D1225C401C98
:101E90005540C0B20428F9D3205CA84200D00221EA
:101EA00008467CBD0EB550208DF8040000208DF84A
:101EB00005000DF10602022101A8FEF733FA02A87F
:101EC00001AB0090042219460C2000F06FF80EBD03
:101ED00010B5144C012210212046FEF741FE0122CC
:101EE00008212046FEF73CFE00F034F88D212A2020
:101EF00000F080FB3E212B2000F07CFB1E212D20DA
:101F000000F078FB00212C2000F074FB402115200C
:101F100000F070FB3D21112000F06CFBBDE810408B
:101F2000FEF7F5B9000801407CB50C4605460721CF
:101F30000D2000F05FFB257001A8234600900122D0
:101F400019460C2000F032F810B90199102900D080
:101F500002207CBD0F21012000F04CBB10B586B0E3
:101F600093218DF8041070218DF80510002101AA2D
:101F7000435C5418491CC9B2A3700529F8D3072142
:101F800001A8D21DFEF7CEF904A801AB00900922EA
:101F900019460C2000F00AF810B90498182802D04D
:101FA000002006B010BD9DF80400FAE72DE9FF5FA0
:101FB00000270225DDF838A016468B468146B84634
:101FC0000C2805D0B9F10E0F05D11227102001E021
:101FD00077273020804647F08001022000F00AFB7E
:101FE00080210420FEF7CDF980210A2000F0B3F90A
:101FF0000021012000F0FEFA002405E01BF8041087
:10200000092000F0F7FA641CB442F7D349460120D6
:1020100000F0F0FAB9F10C0F03D180210D2000F08F
:102020009AF94FF4FA66042000F002F90446761E8D
:1020300004D0E00702D114EA080FF4D080210D206B
:10204000FEF79FF936B1062000F0F2F810F01B0FF2
:1020500004D0022504B02846BDE8F09F00253C408E
:10206000E00700D00125B9F10C0FF3D10A2000F0F0
:10207000DFF804460C2000F0DBF810F007004FEA10
:10208000C40101D008390144CAF8001024B1102C51
:1020900004D91024002603E00124FBE7002605E014
:1020A000092000F0C5F803998855761CA642F7D39D
:1020B000D0E7000030B585B00024184800940194A2
:1020C00002940394816941F020018161816901F0EA
:1020D00020010491816941F004018161816901F06D
:1020E00004010491816941F00801816180690C4D0E
:1020F00000F008000490002218212846FEF730FD69
:10210000182000900120CDE90104022003906946C7
:102110002846FEF735FC05B030BD00000010024037
:10212000000801400F4810B50D4901604FF482715D
:10213000416000218160C1604FF400720161C0E91B
:1021400005121022C0E90721416281620A21C162A1
:10215000FFF79EF9002801D072B6FEE710BD00001F
:1021600000300140B0000020FEE7FEE770470000AD
:1021700001B582B064200090012301AA02A903489E
:10218000FFF718FA9DF804000EBD0000B000002013
:1021900010B5044600F0BEFA16490028487809D068
:1021A00020B1012804D00020487008E00120FBE79E
:1021B0000220F9E728B101280CD0022812D0022011
:1021C00010BD204600F040FA012801D0012010BDCA
:1021D000002010BD204600F0A9FA08B1032010BD70
:1021E000042010BD204600F059FC08B1052010BDA8
:1021F000062010BD5400002070B509490948FEF7BB
:1022000073F9074C002520780A2801D9257004E0CD
:10221000322205490548FEF76AF9A57070BD000035
:102220005400002000F40108DC01002000F0010847
:1022300070B50C4D0446002210212846FEF790FC94
:102240007E2000EA440040F08000FFF791FF00206C
:10225000FFF78EFF0446012210212846FEF780FC7E
:10226000204670BD00080140F8B515460E460B46E5
:10227000009204460122022100F010F840B93346D2
:10228000002280212046009500F008F8002804D0A4
:10229000606D40F0200060650320F8BD2DE9F84333
:1022A0001E46914688460446089DFEF75FFC401B8B
:1022B000351AFEF75BFC074625480068C0F3CB30B3
:1022C000684338E0701C37D0FEF750FCC01BA842B2
:1022D00003D215B1009860B32CE02068416821F06A
:1022E000E00141606068B0F5827F0BD1A068B0F575
:1022F000004F02D0B0F5806F04D12068016821F052
:1023000040010160A06AB0F5005F09D12068016852
:1023100021F4005101602068016841F4005101601E
:10232000012084F85100002084F850000320BDE80B
:10233000F8830025401E00902068816838EA01007B
:1023400004D000214945BDD10020F0E70121F9E783
:102350001C000020704770B50C460546FFF768FF6B
:1023600040EA04012846BDE8704000F043B9FEF79A
:102370008BBD30B58FB028216846FDF764FF14216E
:102380000AA8FDF760FF01210804CDE90010002430
:10239000029402250491CDE907504FF4E010099012
:1023A0006846FEF7E5FE08B172B6FEE70F20CDE9FC
:1023B0000A054FF48060CDE90C4002210AA80E9472
:1023C000FEF7FAFD002801D072B6FEE70FB030BD6F
:1023D000704710B5406A0021C185C184FFF7F7F945
:1023E00010BD01680C3151E8002F22F4907241E8D1
:1023F0000023002BF5D10168143151E8002F22F0A1
:10240000010241E80023002BF5D1016B012909D11C
:1024100001680C3151E8002F22F0100241E800233E
:10242000002BF5D1202180F8421000210163704774
:1024300008B590F84210222901D0022008BD826818
:102440004FF480539A4201D1016921B1816A9A42C5
:102450001BD04AB10AE00268816A5268C2F30802DE
:102460000A80816A891C08E0026972B102685268B8
:1024700002F07F020A70816A491C8162C18D491E87
:102480000904090CC18503D01BE002685268F1E71A
:102490000168CA6822F02002CA600168CA6822F492
:1024A0008072CA6001684A6922F001024A612021F3
:1024B00080F8421000214163026B012A03D0FFF72C
:1024C00055FB002008BD016301680C3151E8002F65
:1024D00022F0100241E80023002BF5D101680A68C0
:1024E000D20602D50A6849680091818DFFF76EF91E
:1024F000E7E7000070B5044600680169E26821F46E
:102500004051114301612169A06808436169084392
:102510002168CA6841F20C639A430243CA6020688A
:102520004169A26921F44071114341611E4920684B
:10253000884202D1FEF7E6FD01E0FEF7D3FD00EB95
:10254000C00101EB0012606864218000B2FBF0F36F
:10255000B3FBF1F36FF018067343B2FBF0F5B2FB77
:10256000F0F605EB8305322303EB0515B5FBF1F51A
:10257000B6FBF1F605F0F00505EB0615B2FBF0F63B
:10258000B2FBF0F0B0FBF1F06FF01802504306EB35
:10259000800003EB0010B0FBF1F0216800F00F00A9
:1025A0002844886070BD0000003801408162828547
:1025B000C28500214164222180F84210016921B1C5
:1025C0000168CA6842F48072CA6001684A6942F0D0
:1025D00001024A610068C16841F02001C160002029
:1025E000704700000148FFF7F3B800000801002021
:1025F000FEE7000070B50B4D0E4604460022102188
:102600002846FEF7ADFA7E2000EA4400FFF7B0FD51
:102610003046FFF7ADFD2846BDE87040012210218D
:10262000FEF79EBA000801400907090E002804DBE6
:1026300000F1E02080F80014704700F00F0000F176
:10264000E02080F8141D704770B5114C05462078C5
:102650000A2801D3002070BD284600F067F808B1B1
:10266000022070BD21780B4A01EB810010442A68DA
:1026700002602A790271491C2170322205490648FC
:10268000FDF755FF21780548FDF740FF012070BD9B
:1026900054000020DC01002000F0010800F40108D3
:1026A00010B5002211460A4800F05EF8094800788B
:1026B00048B1012809D0022809D107A1BDE810407E
:1026C000034800F0E5B809A1F8E70DA1F6E710BD51
:1026D0000800002055000020202052454D4F56454F
:1026E000202043415244202000000000202041448B
:1026F00044204E4557204341524420200000000012
:10270000202020434845434B204341524420202071
:102710000000000010B505220349FDF768FD08B16F
:10272000002010BD012010BD570000202DE9F04110
:10273000074600240A4E0B4D0AE000BF04EB84005C
:10274000811905223846FDF752FD38B1641CE4B208
:1027500028788442F2D30020BDE8F0810120FBE715
:10276000DC010020540000203AB1012A07D0022ADF
:1027700009D0032A09D1D43102E0803100E0C03110
:10278000C9B200F04BB89431FAE7704710B5016058
:10279000044682803220FEF72FF83021204600F0D8
:1027A0003DF80520FEF728F83021204600F036F8E5
:1027B0000120FEF721F83021204600F02FF80A20F2
:1027C000FEF71AF82021204600F028F80A20FEF72C
:1027D00013F82821204600F021F80120FEF70CF81C
:1027E0000821204600F01AF80120FEF705F8012123
:1027F000204600F013F80220FDF7FEFF06212046D8
:1028000000F00CF80120FDF7F7FF0C21204600F046
:1028100005F8BDE810400A20FDF7EEBF1CB501F039
:10282000F00242F00C038DF8043042F00802090176
:102830008DF8052041F00C028DF8062041F00801CA
:102840008DF807106421009181880068042301AA93
:10285000FEF756FA1CBD1CB501F0F00242F00D0364
:102860008DF8043042F0090209018DF8052041F08D
:102870000D028DF8062041F009018DF80710642142
:10288000009181880068042301AAFEF739FA1CBD73
:1028900070B50C46054603E02846641CFFF7DBFFD5
:1028A00021780029F8D170BD08B5FEF7F5FAFFF7D9
:1028B00060FDFFF7FFFB4D48416941F001014161B7
:1028C0004069002200F00100009011460E20FEF742
:1028D00041FB0E20FEF730FB4648454900240160CD
:1028E0004549C0E901144FF48041C0E90341446106
:1028F0008461C4610462FEF73FF908B172B6FEE775
:10290000FFF710FC3B483D49AC3001604FF4E1312A
:10291000C0E901140C21C460C0E904418461C461B0
:10292000FFF78CF808B172B6FEE74E223149344801
:10293000FFF72CFF32492F4801220839AC30FFF74E
:1029400007F9002211462E48FFF70EFF2DA12C4853
:10295000FFF79EFFFFF750FC40F6B830FDF74CFF45
:10296000FFF79EFEFFF7B4FA22492620F431FFF765
:10297000DBFA40BB2248C01FFFF773FA18BB2048A0
:10298000C01FFFF7EBFA1E48C01FFFF701FC04460B
:10299000012200211A48FFF7E7FE072C0BD2DFE8DF
:1029A00004F004060A1C1E20220019A100E01DA14B
:1029B0001348FFF76DFFFFF773FEFFF773FA4FF44D
:1029C0007A70FDF719FF012200210D48FFF7CCFEB8
:1029D00019A10B48FFF75CFFC4E71CA1E8E720A1A1
:1029E000E6E724A1E4E728A1E2E7000000100240A6
:1029F000005400405C000020A08601000038014027
:102A000008000020524649442053797374656D00D4
:102A1000416464656420436172642020202020208A
:102A200000000000416464204361726420466169D3
:102A30006C2020200000000057616974696E6720D7
:102A400043617264202E2E2E0000000041636365F6
:102A50007373204772616E7465642020000000006B
:102A60004163636573732044656E6965642020204B
:102A70000000000052656D6F7665642043617264EA
:102A8000202020200000000052656D6F76652046F2
:102A900061696C2020202020000000002DE9F04119
:102AA00007460024174E184D0AE000BF04EB8400CF
:102AB000811905223846FDF79AFB38B1641CE4B24F
:102AC00028788442F2D30020BDE8F0812878401EA7
:102AD0000AE000BF04EB84013144641CD1F80520F6
:102AE0000A604A7A0A71E4B28442F3DB2870322227
:102AF00004490648FDF71BFD29780548FDF706FD4A
:102B00000120E1E7DC0100205400002000F0010872
:102B100000F4010810B50A490023084C0A780A2875
:102B200007D0A054521CD0B20870142800D30B70E8
:102B300010BDA35401204870F9E70000C80100202F
:102B400020000020010202030405060708090A0B01
:102B50000C0D0E0F1010000000000000000001021C
:102B60000304060708090000000001020304000036
:102B700048415244574152455F5553454400000077
:102B8000534F4654574152455F555345440000004A
:102B900047524F55505F4E414D45000050524F4AED
:102BA0004543545F4E414D450000000044415445AB
:102BB000000000004D454D4245525300000000000A
:102BC000E02B0008000000205C0000002801000845
:102BD0003C2C00085C0000201408000044010008A0
:102BE00000000000000000000000000000000000E5
:102BF00001000000100000000000000000127A0038
:102C000000000000902B0008BC2B0008B42B00082B
:102C1000BC2B00089C2B0008BC2B0008702B000864
:102C2000BC2B0008802B0008BC2B0008AC2B000834
:0C2C3000BC2B0008000100233E4A0651A6
:04000005080000ED02
:00000001FF
